S011000050726F6A6563745F322E73726563AB
S11300000C942A000C9435020C9447000C9447007D
S11300100C9447000C9447000C9447000C94470040
S11300200C9447000C9447000C9492020C944700E3
S11300300C9447000C9447000C9447000C94470020
S11300400C9447000C9447000C9447000C94470010
S11300500C94470011241FBECFE5D8E0DEBFCDBF0E
S113006010E0A0E6B0E0ECEDFDE002C005900D92DA
S1130070A236B107D9F720E0A2E6B0E001C01D9294
S1130080A636B207E1F70E9487030C94EC060C94A1
S1130090000067E084E40E94F50260E083E40E94CB
S11300A0F50260E081E40E94F502813021F467E00A
S11300B084E40E94F90261E081E40E94F502813047
S11300C021F467E084E40E94F90262E081E40E9482
S11300D0F502813021F467E084E40E94F90260E0D3
S11300E082E40E94F502813021F467E084E40E94F6
S11300F0F90261E082E40E94F502813021F467E0B4
S113010084E40E94F90262E082E40E94F5028130F4
S113011021F467E084E40E94F9020E9434038130F0
S113012021F467E084E40E94F90262E084E40E941E
S1130130EB02813021F467E084E40E94F90262E07A
S113014084E40E94EF02813021F467E084E40E9499
S1130150F9020E948103813021F467E084E40E9463
S1130160F9020E943903813021F467E084E40E949B
S1130170F902089580916300882321F0813009F405
S1130180D1C0089580916000823009F446C0833064
S113019009F489C0813009F067C161E081E40E94FB
S11301A0FD02813021F460E083E40E94F90262E000
S11301B081E40E94FD02813021F460E083E40E9426
S11301C0F90260E082E40E94FD02813021F460E0E3
S11301D083E40E94F90261E082E40E94FD0281301E
S11301E021F460E083E40E94F90260E081E40E946B
S11301F0F902813021F460E083E40E94F90262E0B4
S113020082E40E94F902813021F460E083E40E94D8
S1130210F90281E080936200089560E081E40E9425
S1130220FD02813021F460E083E40E94F90262E07F
S113023081E40E94FD02813021F460E083E40E94A5
S1130240F90260E082E40E94FD02813021F460E062
S113025083E40E94F90262E082E40E94FD0281309C
S113026021F460E083E40E94F90261E081E40E94E9
S11302700103813021F460E083E40E94F90261E02B
S113028082E40E940103813021F460E083E40E944F
S1130290F9020E945403813009F0E6C060E083E46F
S11302A00E94F902089560E081E40E94FD02813019
S11302B021F460E083E40E94F90261E081E40E9499
S11302C0FD02813021F460E083E40E94F90261E0E0
S11302D082E40E94FD02813021F460E083E40E9404
S11302E0F90262E082E40E94FD02813021F460E0C0
S11302F083E40E94F90262E081E40E94F902813001
S113030021F460E083E40E94F90260E082E40E9448
S1130310F902813021F460E083E40E94F902109232
S11303206200089580916000823049F0833009F4BE
S11303305DC0813009F098C010926300089560E0B8
S113034081E40E94FD02813021F460E083E40E9494
S1130350F90262E081E40E94FD02813021F460E050
S113036083E40E94F90262E082E40E94FD0281308B
S113037021F460E083E40E94F90261E081E40E94D8
S11303800103813021F460E083E40E94F90261E01A
S113039082E40E940103813021F460E083E40E943E
S11303A0F9028091620081110BC060E082E40E9436
S11303B0F902813089F460E083E40E94F9020CC000
S11303C0813051F460E082E40E94FD02813021F426
S11303D060E083E40E94F9020E945403813009F032
S11303E043C060E083E40E94F902089560E081E480
S11303F00E94FD02813021F460E083E40E94F9024E
S113040061E081E40E94FD02813021F460E083E434
S11304100E94F90261E082E40E94FD02813021F42D
S113042060E083E40E94F90262E082E40E94FD023B
S1130430813021F460E083E40E94F90262E081E407
S11304400E94F902813021F460E083E40E94F90201
S113045060E082E40E94F902813021F460E083E4E8
S11304600E94F9021092620008951F920F920FB633
S11304700F9211242F933F934F935F936F937F9326
S11304808F939F93AF93BF93EF93FF9380916300F8
S1130490811137C081E080936300809160009EEFFA
S11304A0980F9230A8F40E945003813021F460E048
S11304B083E40E94F90210926500109264000E9485
S11304C039038130F1F460E083E40E94F90219C039
S11304D08130B9F482E0809360000E94500381303F
S11304E021F460E083E40E94F90210926500109206
S11304F064000E943903813021F460E083E40E94A7
S1130500F902FF91EF91BF91AF919F918F917F91EC
S11305106F915F914F913F912F910F900FBE0F906C
S11305201F9018951F920F920FB60F9211242F93BC
S11305303F934F935F936F937F938F939F93AF9367
S1130540BF93EF93FF938091640090916500813392
S113055021E0920710F180916000813021F48F5FD7
S11305608093600015C0833021F481508093600033
S11305700FC0823069F490916200911104C08150DF
S11305808093600005C0913019F48F5F8093600000
S1130590109265001092640005C001969093650066
S11305A0809364000E943903813021F460E083E485
S11305B00E94F902FF91EF91BF91AF919F918F91AA
S11305C07F916F915F914F913F912F910F900FBE4B
S11305D00F901F90189540E00E948C0308950E948C
S11305E0360586E00E941505089541E00E948C03BB
S11305F0089541E00E941904089540E00E941904FE
S11306000895FF920F931F93CF93DF931F92CDB75B
S1130610DEB7082FF62E1982AE014F5F5F4F0E949E
S1130620A6048130A1F01981111108C06F2D802F0B
S11306300E94F902813081F411E00EC0113049F4B6
S11306406F2D802F0E94FD02813029F405C011E036
S113065003C010E001C010E0812F0F90DF91CF9113
S11306601F910F91FF90089560E080E00E94520571
S11306700895CF9361E080E00E94AB06C82F40E06C
S113068054E060E070E080E00E94E405C13019F0BD
S1130690813019F403C081E001C080E0CF91089556
S11306A080E00E94D20508951F93CF93DF9361E009
S11306B082E00E94AB06C82F40E054E060E070E0A6
S11306C082E00E94E405D82F6EE182E00E94BD061C
S11306D0182F82E00E94D205C13041F0D13041F0A0
S11306E0813041F0113041F481E007C081E005C060
S11306F081E003C081E001C080E0DF91CF911F91D0
S113070008950E94360580E00E94380508950E94ED
S113071049000E94BA00FDCF823449F118F48134B3
S113072041F07DC0833409F440C0843409F45AC0D4
S113073076C041110DC02AB381E090E002C0880F59
S1130740991F6A95E2F7809582238ABB80E0089519
S1130750413009F066C02AB381E090E002C0880FFE
S1130760991F6A95E2F7822B8ABB80E008954111B4
S11307700DC027B381E090E002C0880F991F6A95ED
S1130780E2F78095822387BB80E00895413009F029
S11307904AC027B381E090E002C0880F991F6A9590
S11307A0E2F7822B87BB80E0089541110DC024B38A
S11307B081E090E002C0880F991F6A95E2F7809566
S11307C0822384BB80E00895413079F524B381E02D
S11307D090E002C0880F991F6A95E2F7822B84BBD0
S11307E080E0089541110DC021B381E090E002C082
S11307F0880F991F6A95E2F78095822381BB80E078
S113080008954130A1F421B381E090E002C0880F43
S1130810991F6A95E2F7822B81BB80E0089581E0FD
S1130820089581E0089581E0089581E0089581E0CC
S11308300895823449F118F4813441F07DC0833441
S113084009F440C0843409F45AC076C041110DC083
S11308502BB381E090E002C0880F991F6A95E2F7FC
S1130860809582238BBB80E00895413009F066C0F7
S11308702BB381E090E002C0880F991F6A95E2F7DC
S1130880822B8BBB80E0089541110DC028B381E019
S113089090E002C0880F991F6A95E2F78095822341
S11308A088BB80E00895413009F04AC028B381E054
S11308B090E002C0880F991F6A95E2F7822B88BBEB
S11308C080E0089541110DC025B381E090E002C09D
S11308D0880F991F6A95E2F78095822385BB80E093
S11308E00895413079F525B381E090E002C0880F86
S11308F0991F6A95E2F7822B85BB80E00895411128
S11309000DC022B381E090E002C0880F991F6A9560
S1130910E2F78095822382BB80E008954130A1F400
S113092022B381E090E002C0880F991F6A95E2F734
S1130930822B82BB80E0089581E0089581E00895D0
S113094081E0089581E0089581E00895683008F019
S113095068C0823409F118F4813439F064C08334F6
S113096091F1843409F446C05EC079B381E090E02B
S11309709C01062E02C0220F331F0A94E2F7872F30
S113098090E08223932302C0959587956A95E2F7B8
S1130990FA01808380E0089576B381E090E09C01C1
S11309A0062E02C0220F331F0A94E2F7872F90E02D
S11309B08223932302C0959587956A95E2F7FA01FD
S11309C0808380E0089573B381E090E09C01062E5B
S11309D002C0220F331F0A94E2F7872F90E082238C
S11309E0932302C0959587956A95E2F7FA0180836F
S11309F080E0089570B381E090E09C01062E02C06F
S1130A00220F331F0A94E2F7872F90E08223932367
S1130A1002C0959587956A95E2F7FA01808380E094
S1130A20089581E0089581E00895863029F08730A3
S1130A3059F08530C9F410C085B7836085BF8BB782
S1130A4080648BBF80E0089585B78C6085BF8BB7C9
S1130A5080688BBF80E0089584B7806484BF8BB7BF
S1130A6080628BBF80E0089581E0089578940895B2
S1130A70813049F018F0823071F012C089B7826079
S1130A8089BF80E0089589B7806189BF89B788608C
S1130A9089BF80E0089589B7806889BF80E00895A0
S1130AA081E00895813031F120F0823009F451C0A1
S1130AB071C012BE613049F028F0623061F06330D9
S1130AC081F06AC013BE80E0089513BE83B78064CA
S1130AD083BF80E0089513BE83B7886083BF80E03E
S1130AE0089513BE83B7806483BF83B7886083BFD0
S1130AF080E008951DBC1CBC613051F028F06230C8
S1130B0089F06330B1F04AC01FBC1EBC80E0089578
S1130B101FBC1EBC8FB581608FBD8FB582608FBD39
S1130B2080E008951FBC1EBC8EB588608EBD80E039
S1130B3008951FBC1EBC8FB581608FBD8FB58260C8
S1130B408FBD8EB588608EBD8EB580618EBD80E010
S1130B50089514BC613049F028F0623061F06330CC
S1130B6081F01EC015BC80E0089515BC85B5806475
S1130B7085BD80E0089515BC85B5886085BD80E09D
S1130B80089515BC85B5806485BD85B5886085BD2F
S1130B9080E0089581E0089581E0089581E008955A
S1130BA081E00895813039F018F0823041F00AC0B4
S1130BB013BE80E008951FBC1EBC80E0089515BCE0
S1130BC080E0089581E00895813009F441C020F067
S1130BD0823009F479C0B7C040345105610571050C
S1130BE011F158F4413051056105710591F0483017
S1130BF051056105710591F0A8C0411581E05807C0
S1130C0061057105C1F04115544061057105C1F0DC
S1130C109CC083B7816083BF80E0089583B78260FE
S1130C2083BF80E0089583B7816083BF83B7826008
S1130C3083BF80E0089583B7846083BF80E0089514
S1130C4083B7816083BF83B7846083BF80E00895E6
S1130C50403451056105710511F158F441305105D5
S1130C606105710591F0483051056105710591F0F8
S1130C706EC0411581E0580761057105C1F0411549
S1130C80544061057105C1F062C08EB581608EBDAE
S1130C9080E008958EB582608EBD80E008958EB5A3
S1130CA081608EBD8EB582608EBD80E008958EB564
S1130CB084608EBD80E008958EB581608EBD8EB552
S1130CC084608EBD80E0089540345105610571054E
S1130CD011F158F4413051056105710591F0483026
S1130CE051056105710591F034C0411581E0580743
S1130CF061057105C1F04115544061057105C1F0EC
S1130D0028C085B5816085BD80E0089585B5826081
S1130D1085BD80E0089585B5816085BD85B5826017
S1130D2085BD80E0089585B5846085BD80E0089523
S1130D3085B5816085BD85B5826085BD85B58460D6
S1130D4085BD80E0089581E0089581E0089581E003
S1130D50089581E00895813039F018F0823041F02F
S1130D600AC062BF80E008951DBC6CBD80E0089598
S1130D7064BD80E0089581E008958130C9F058F0A1
S1130D80823019F127C008B600FEFDCF88B7816014
S1130D9088BF9F5F01C090E09617A8F380E0089594
S1130DA008B602FEFDCF88B7846088BF9F5F01C08C
S1130DB090E09617A8F380E0089508B606FEFDCFEC
S1130DC088B7806488BF9F5F01C090E09617A8F33E
S10F0DD080E0089581E00895F894FFCFBE
S1050DDC010010
S9030000FC
