:100000000C942A000C9420010C9447000C94470097
:100010000C9447000C9447000C9447000C94470044
:100020000C9447000C9447000C9465010C94470015
:100030000C9447000C9447000C9447000C94470024
:100040000C9447000C9447000C9447000C94470014
:100050000C94470011241FBECFE5D8E0DEBFCDBF12
:1000600010E0A0E6B0E0EEE1FAE002C005900D92EB
:10007000A236B107D9F720E0A2E6B0E001C01D9298
:10008000A636B207E1F70E941E020C940D050C94EF
:10009000000060E081E40E94C20161E081E40E940E
:1000A000C20162E081E40E94C20160E082E40E9439
:1000B000C20161E082E40E94C20162E082E40E9427
:1000C000C2010E94F00162E084E40E94B80162E093
:1000D00084E40E94BC010E9418020E94F501089568
:1000E00080916300882321F0813009F45CC0089579
:1000F00080916000823009F18330D1F1813009F0C4
:100100009EC061E081E40E94CA0162E081E40E9435
:10011000CA0160E082E40E94CA0161E082E40E94B8
:10012000CA0160E081E40E94C60162E082E40E94AC
:10013000C60181E080936200089560E081E40E943E
:10014000CA0162E081E40E94CA0160E082E40E9488
:10015000CA0162E082E40E94CA0161E081E40E9477
:10016000CE0161E082E40E94CE010E940502089562
:1001700060E081E40E94CA0161E081E40E94CA015A
:1001800061E082E40E94CA0162E082E40E94CA0146
:1001900062E081E40E94C60160E082E40E94C60140
:1001A00010926200089580916000823041F08330A7
:1001B00061F1813009F043C010926300089560E05E
:1001C00081E40E94CA0162E081E40E94CA0162E007
:1001D00082E40E94CA0161E081E40E94CE0161E0F4
:1001E00082E40E94CE0180916200811105C060E02E
:1001F00082E40E94C60106C0813021F460E082E4FE
:100200000E94CA010E940502089560E081E40E94F4
:10021000CA0161E081E40E94CA0161E082E40E94B7
:10022000CA0162E082E40E94CA0162E081E40E94A5
:10023000C60160E082E40E94C60110926200089547
:100240001F920F920FB60F9211242F933F934F934B
:100250005F936F937F938F939F93AF93BF93EF932E
:10026000FF938091630081111FC081E08093630040
:10027000809160009EEF980F923048F40E94010236
:1002800010926500109264000E94F5010DC081304B
:1002900059F482E0809360000E9401021092650090
:1002A000109264000E94F501FF91EF91BF91AF9110
:1002B0009F918F917F916F915F914F913F912F917E
:1002C0000F900FBE0F901F9018951F920F920FB6B0
:1002D0000F9211242F933F934F935F936F937F93CC
:1002E0008F939F93AF93BF93EF93FF93809164009D
:1002F00090916500813321E0920710F180916000B8
:10030000813021F48F5F8093600015C0833021F429
:100310008150809360000FC0823069F49091620038
:10032000911104C081508093600005C0913019F490
:100330008F5F80936000109265001092640005C08A
:10034000019690936500809364000E94F501FF91EF
:10035000EF91BF91AF919F918F917F916F915F913D
:100360004F913F912F910F900FBE0F901F901895B6
:1003700040E00E942302089586E00E947B030E94D1
:100380009703089541E00E942302089541E00E94EE
:100390009D02089540E00E949D0208950F931F93CF
:1003A000CF93DF931F92CDB7DEB7182F062FAE0184
:1003B0004F5F5F4F0E9417038981811105C0602F35
:1003C000812F0E94C60106C0813021F4602F812F49
:1003D0000E94CA010F90DF91CF911F910F91089554
:1003E00060E080E00E94AE03089561E080E00E943A
:1003F000D60440E054E060E070E080E00E94270412
:10040000089580E00E941A04089561E082E00E944D
:10041000D60440E054E060E070E082E00E942704EF
:100420006EE182E00E94E30482E00E941A040895D3
:1004300080E00E9499030E94970308950E9449005A
:100440000E947000FDCF823431F118F4813439F00C
:1004500008958334E1F1843409F454C008954111BE
:100460000CC02AB381E090E002C0880F991F6A9502
:10047000E2F7809582238ABB0895413009F05CC081
:100480002AB381E090E002C0880F991F6A95E2F7D5
:10049000822B8ABB089541110CC027B381E090E004
:1004A00002C0880F991F6A95E2F78095822387BB67
:1004B0000895413009F040C027B381E090E002C0C8
:1004C000880F991F6A95E2F7822B87BB0895411127
:1004D0000CC024B381E090E002C0880F991F6A9598
:1004E000E2F78095822384BB0895413029F524B337
:1004F00081E090E002C0880F991F6A95E2F7822B95
:1005000084BB089541110CC021B381E090E002C08A
:10051000880F991F6A95E2F78095822381BB089521
:10052000413051F421B381E090E002C0880F991F5F
:100530006A95E2F7822B81BB0895823431F118F479
:10054000813439F008958334E1F1843409F454C0DE
:10055000089541110CC02BB381E090E002C0880FD8
:10056000991F6A95E2F7809582238BBB08954130ED
:1005700009F05CC02BB381E090E002C0880F991FA6
:100580006A95E2F7822B8BBB089541110CC028B30A
:1005900081E090E002C0880F991F6A95E2F780958C
:1005A000822388BB0895413009F040C028B381E020
:1005B00090E002C0880F991F6A95E2F7822B88BBF2
:1005C000089541110CC025B381E090E002C0880F6E
:1005D000991F6A95E2F78095822385BB0895413083
:1005E00029F525B381E090E002C0880F991F6A9534
:1005F000E2F7822B85BB089541110CC022B381E044
:1006000090E002C0880F991F6A95E2F780958223D7
:1006100082BB0895413051F422B381E090E002C0E2
:10062000880F991F6A95E2F7822B82BB0895823466
:1006300001F118F4813439F00895833481F1843460
:1006400009F443C0089579B381E090E09C01062E3F
:1006500002C0220F331F0A94E2F7872F90E0822313
:10066000932302C0959587956A95E2F7FA018083F6
:10067000089576B381E090E09C01062E02C0220F1F
:10068000331F0A94E2F7872F90E08223932302C05E
:10069000959587956A95E2F7FA018083089573B37B
:1006A00081E090E09C01062E02C0220F331F0A94C5
:1006B000E2F7872F90E08223932302C095958795D8
:1006C0006A95E2F7FA018083089570B381E090E0C3
:1006D0009C01062E02C0220F331F0A94E2F7872FD7
:1006E00090E08223932302C0959587956A95E2F75F
:1006F000FA0180830895863029F0873051F08530E3
:10070000A9F40EC085B7836085BF8BB780648BBFAB
:10071000089585B78C6085BF8BB780688BBF0895BF
:1007200084B7806484BF8BB780628BBF0895789450
:100730000895813041F018F0823061F0089589B752
:10074000826089BF089589B7806189BF89B7886051
:1007500089BF089589B7806889BF0895813011F1F4
:1007600020F0823009F449C0089512BE613041F092
:1007700028F0623051F0633069F0089513BE089597
:1007800013BE83B7806483BF089513BE83B78860A8
:1007900083BF089513BE83B7806483BF83B7886027
:1007A00083BF08951DBC1CBC613049F028F0623045
:1007B00079F0633099F008951FBC1EBC08951FBCEA
:1007C0001EBC8FB581608FBD8FB582608FBD0895CF
:1007D0001FBC1EBC8EB588608EBD08951FBC1EBC9C
:1007E0008FB581608FBD8FB582608FBD8EB58860FB
:1007F0008EBD8EB580618EBD089514BC613041F010
:1008000028F0623051F0633069F0089515BC089506
:1008100015BC85B5806485BD089515BC85B5886017
:1008200085BD089515BC85B5806485BD85B5886096
:1008300085BD0895813031F018F0823031F008958F
:1008400013BE08951FBC1EBC089515BC08958130C9
:10085000E1F120F0823009F46FC008954034510571
:100860006105710501F158F44130510561057105CB
:1008700091F0483051056105710589F008954115E1
:1008800081E0580761057105A9F0411554406105E3
:100890007105A1F0089583B7816083BF089583B780
:1008A000826083BF089583B7816083BF83B782600E
:1008B00083BF089583B7846083BF089583B7816041
:1008C00083BF83B7846083BF0895403451056105B9
:1008D000710501F158F4413051056105710591F040
:1008E000483051056105710589F00895411581E091
:1008F000580761057105A9F041155440610571055E
:10090000A1F008958EB581608EBD08958EB5826088
:100910008EBD08958EB581608EBD8EB582608EBD10
:1009200008958EB584608EBD08958EB581608EBDAC
:100930008EB584608EBD0895403451056105710502
:1009400001F158F4413051056105710591F04830CD
:1009500051056105710589F00895411581E0580739
:1009600061057105A9F04115544061057105A1F0BB
:10097000089585B5816085BD089585B5826085BD82
:10098000089585B5816085BD85B5826085BD089572
:1009900085B5846085BD089585B5816085BD85B5C3
:1009A000826085BD85B5846085BD0895813031F054
:1009B00018F0823031F0089562BF08951DBC6CBDFF
:1009C000089564BD08958130C1F058F0823009F176
:1009D000089508B600FEFDCF88B7816088BF9F5F8D
:1009E00001C090E09617A8F3089508B602FEFDCF67
:1009F00088B7846088BF9F5F01C090E09617A8F316
:100A0000089508B606FEFDCF88B7806488BF9F5F53
:0E0A100001C090E09617A8F30895F894FFCF68
:020A1E000100D5
:00000001FF
